{
  "contractName": "PaySpec",
  "abi": [
    {
      "inputs": [],
      "payable": false,
      "stateMutability": "nonpayable",
      "type": "constructor"
    },
    {
      "payable": true,
      "stateMutability": "payable",
      "type": "fallback"
    },
    {
      "anonymous": false,
      "inputs": [
        {
          "indexed": false,
          "name": "uuid",
          "type": "bytes32"
        }
      ],
      "name": "CreatedInvoice",
      "type": "event"
    },
    {
      "anonymous": false,
      "inputs": [
        {
          "indexed": false,
          "name": "uuid",
          "type": "bytes32"
        },
        {
          "indexed": false,
          "name": "from",
          "type": "address"
        }
      ],
      "name": "PaidInvoice",
      "type": "event"
    },
    {
      "constant": true,
      "inputs": [],
      "name": "getContractVersion",
      "outputs": [
        {
          "name": "",
          "type": "uint256"
        }
      ],
      "payable": false,
      "stateMutability": "pure",
      "type": "function"
    },
    {
      "constant": false,
      "inputs": [
        {
          "name": "refNumber",
          "type": "uint256"
        },
        {
          "name": "description",
          "type": "string"
        },
        {
          "name": "token",
          "type": "address"
        },
        {
          "name": "amountDue",
          "type": "uint256"
        },
        {
          "name": "payTo",
          "type": "address"
        },
        {
          "name": "ethBlockExpiresAt",
          "type": "uint256"
        }
      ],
      "name": "createInvoice",
      "outputs": [
        {
          "name": "uuid",
          "type": "bytes32"
        }
      ],
      "payable": false,
      "stateMutability": "nonpayable",
      "type": "function"
    },
    {
      "constant": false,
      "inputs": [
        {
          "name": "refNumber",
          "type": "uint256"
        },
        {
          "name": "description",
          "type": "string"
        },
        {
          "name": "token",
          "type": "address"
        },
        {
          "name": "amountDue",
          "type": "uint256"
        },
        {
          "name": "payTo",
          "type": "address"
        },
        {
          "name": "ethBlockExpiresAt",
          "type": "uint256"
        }
      ],
      "name": "createAndPayInvoice",
      "outputs": [
        {
          "name": "",
          "type": "bool"
        }
      ],
      "payable": false,
      "stateMutability": "nonpayable",
      "type": "function"
    },
    {
      "constant": false,
      "inputs": [
        {
          "name": "invoiceUUID",
          "type": "bytes32"
        }
      ],
      "name": "payInvoice",
      "outputs": [
        {
          "name": "",
          "type": "bool"
        }
      ],
      "payable": false,
      "stateMutability": "nonpayable",
      "type": "function"
    },
    {
      "constant": true,
      "inputs": [
        {
          "name": "invoiceUUID",
          "type": "bytes32"
        }
      ],
      "name": "getDescription",
      "outputs": [
        {
          "name": "",
          "type": "string"
        }
      ],
      "payable": false,
      "stateMutability": "view",
      "type": "function"
    },
    {
      "constant": true,
      "inputs": [
        {
          "name": "invoiceUUID",
          "type": "bytes32"
        }
      ],
      "name": "getRefNumber",
      "outputs": [
        {
          "name": "",
          "type": "uint256"
        }
      ],
      "payable": false,
      "stateMutability": "view",
      "type": "function"
    },
    {
      "constant": true,
      "inputs": [
        {
          "name": "invoiceUUID",
          "type": "bytes32"
        }
      ],
      "name": "getEthBlockExpiredAt",
      "outputs": [
        {
          "name": "",
          "type": "uint256"
        }
      ],
      "payable": false,
      "stateMutability": "view",
      "type": "function"
    },
    {
      "constant": true,
      "inputs": [
        {
          "name": "invoiceUUID",
          "type": "bytes32"
        }
      ],
      "name": "getTokenAddress",
      "outputs": [
        {
          "name": "",
          "type": "address"
        }
      ],
      "payable": false,
      "stateMutability": "view",
      "type": "function"
    },
    {
      "constant": true,
      "inputs": [
        {
          "name": "invoiceUUID",
          "type": "bytes32"
        }
      ],
      "name": "getRecipientAddress",
      "outputs": [
        {
          "name": "",
          "type": "address"
        }
      ],
      "payable": false,
      "stateMutability": "view",
      "type": "function"
    },
    {
      "constant": true,
      "inputs": [
        {
          "name": "invoiceUUID",
          "type": "bytes32"
        }
      ],
      "name": "invoiceExists",
      "outputs": [
        {
          "name": "",
          "type": "bool"
        }
      ],
      "payable": false,
      "stateMutability": "view",
      "type": "function"
    },
    {
      "constant": true,
      "inputs": [
        {
          "name": "invoiceUUID",
          "type": "bytes32"
        }
      ],
      "name": "getAmountDue",
      "outputs": [
        {
          "name": "",
          "type": "uint256"
        }
      ],
      "payable": false,
      "stateMutability": "view",
      "type": "function"
    },
    {
      "constant": true,
      "inputs": [
        {
          "name": "invoiceUUID",
          "type": "bytes32"
        }
      ],
      "name": "getAmountPaid",
      "outputs": [
        {
          "name": "",
          "type": "uint256"
        }
      ],
      "payable": false,
      "stateMutability": "view",
      "type": "function"
    },
    {
      "constant": true,
      "inputs": [
        {
          "name": "invoiceUUID",
          "type": "bytes32"
        }
      ],
      "name": "getEthBlockPaidAt",
      "outputs": [
        {
          "name": "",
          "type": "uint256"
        }
      ],
      "payable": false,
      "stateMutability": "view",
      "type": "function"
    },
    {
      "constant": true,
      "inputs": [
        {
          "name": "invoiceUUID",
          "type": "bytes32"
        }
      ],
      "name": "invoiceWasPaid",
      "outputs": [
        {
          "name": "",
          "type": "bool"
        }
      ],
      "payable": false,
      "stateMutability": "view",
      "type": "function"
    },
    {
      "constant": true,
      "inputs": [
        {
          "name": "invoiceUUID",
          "type": "bytes32"
        }
      ],
      "name": "invoiceHasExpired",
      "outputs": [
        {
          "name": "",
          "type": "bool"
        }
      ],
      "payable": false,
      "stateMutability": "view",
      "type": "function"
    },
    {
      "constant": false,
      "inputs": [
        {
          "name": "from",
          "type": "address"
        },
        {
          "name": "tokens",
          "type": "uint256"
        },
        {
          "name": "token",
          "type": "address"
        },
        {
          "name": "data",
          "type": "bytes"
        }
      ],
      "name": "receiveApproval",
      "outputs": [
        {
          "name": "",
          "type": "bool"
        }
      ],
      "payable": false,
      "stateMutability": "nonpayable",
      "type": "function"
    }
  ],
  "bytecode": "0x608060405234801561001057600080fd5b50611710806100206000396000f3fe6080604052600436106100e6576000357c0100000000000000000000000000000000000000000000000000000000900463ffffffff1680630185dce2146100eb578063042eabff1461022957806308ce5e5a146102785780631709078b146102cb578063222ab3471461031e57806326302bba146103715780636e5a2d6c146104ab57806381f42261146104fa5780638aa10435146105495780638f4ffcb1146105745780639fbf7b851461069e578063b12e4410146106ed578063b820a0ed14610768578063b85398e41461081c578063e4361e1e1461086f578063f606e6ce146108ea575b600080fd5b3480156100f757600080fd5b5061020f600480360360c081101561010e57600080fd5b81019080803590602001909291908035906020019064010000000081111561013557600080fd5b82018360208201111561014757600080fd5b8035906020019184600183028401116401000000008311171561016957600080fd5b91908080601f016020809104026020016040519081016040528093929190818152602001838380828437600081840152601f19601f820116905080830192505050505050509192919290803573ffffffffffffffffffffffffffffffffffffffff16906020019092919080359060200190929190803573ffffffffffffffffffffffffffffffffffffffff16906020019092919080359060200190929190505050610939565b604051808215151515815260200191505060405180910390f35b34801561023557600080fd5b506102626004803603602081101561024c57600080fd5b8101908080359060200190929190505050610970565b6040518082815260200191505060405180910390f35b34801561028457600080fd5b506102b16004803603602081101561029b57600080fd5b810190808035906020019092919050505061098f565b604051808215151515815260200191505060405180910390f35b3480156102d757600080fd5b50610304600480360360208110156102ee57600080fd5b81019080803590602001909291905050506109b8565b604051808215151515815260200191505060405180910390f35b34801561032a57600080fd5b506103576004803603602081101561034157600080fd5b81019080803590602001909291905050506109d9565b604051808215151515815260200191505060405180910390f35b34801561037d57600080fd5b50610495600480360360c081101561039457600080fd5b8101908080359060200190929190803590602001906401000000008111156103bb57600080fd5b8201836020820111156103cd57600080fd5b803590602001918460018302840111640100000000831117156103ef57600080fd5b91908080601f016020809104026020016040519081016040528093929190818152602001838380828437600081840152601f19601f820116905080830192505050505050509192919290803573ffffffffffffffffffffffffffffffffffffffff16906020019092919080359060200190929190803573ffffffffffffffffffffffffffffffffffffffff16906020019092919080359060200190929190505050610b53565b6040518082815260200191505060405180910390f35b3480156104b757600080fd5b506104e4600480360360208110156104ce57600080fd5b8101908080359060200190929190505050610b70565b6040518082815260200191505060405180910390f35b34801561050657600080fd5b506105336004803603602081101561051d57600080fd5b8101908080359060200190929190505050610b8f565b6040518082815260200191505060405180910390f35b34801561055557600080fd5b5061055e610bae565b6040518082815260200191505060405180910390f35b34801561058057600080fd5b506106846004803603608081101561059757600080fd5b81019080803573ffffffffffffffffffffffffffffffffffffffff16906020019092919080359060200190929190803573ffffffffffffffffffffffffffffffffffffffff169060200190929190803590602001906401000000008111156105fe57600080fd5b82018360208201111561061057600080fd5b8035906020019184600183028401116401000000008311171561063257600080fd5b91908080601f016020809104026020016040519081016040528093929190818152602001838380828437600081840152601f19601f820116905080830192505050505050509192919290505050610bb7565b604051808215151515815260200191505060405180910390f35b3480156106aa57600080fd5b506106d7600480360360208110156106c157600080fd5b8101908080359060200190929190505050610d3b565b6040518082815260200191505060405180910390f35b3480156106f957600080fd5b506107266004803603602081101561071057600080fd5b8101908080359060200190929190505050610d5a565b604051808273ffffffffffffffffffffffffffffffffffffffff1673ffffffffffffffffffffffffffffffffffffffff16815260200191505060405180910390f35b34801561077457600080fd5b506107a16004803603602081101561078b57600080fd5b8101908080359060200190929190505050610d99565b6040518080602001828103825283818151815260200191508051906020019080838360005b838110156107e15780820151818401526020810190506107c6565b50505050905090810190601f16801561080e5780820380516001836020036101000a031916815260200191505b509250505060405180910390f35b34801561082857600080fd5b506108556004803603602081101561083f57600080fd5b8101908080359060200190929190505050610e50565b604051808215151515815260200191505060405180910390f35b34801561087b57600080fd5b506108a86004803603602081101561089257600080fd5b8101908080359060200190929190505050610e87565b604051808273ffffffffffffffffffffffffffffffffffffffff1673ffffffffffffffffffffffffffffffffffffffff16815260200191505060405180910390f35b3480156108f657600080fd5b506109236004803603602081101561090d57600080fd5b8101908080359060200190929190505050610ec6565b6040518082815260200191505060405180910390f35b60008061094b33898989898989610ee5565b9050610956816109d9565b151561096157600080fd5b60019150509695505050505050565b6000806000838152602001908152602001600020600401549050919050565b60008061099b83610ec6565b141580156109b157506109ad82610ec6565b4310155b9050919050565b60008160008084815260200190815260200160002060000154149050919050565b600080600083815260200190815260200160002060030160009054906101000a900473ffffffffffffffffffffffffffffffffffffffff1673ffffffffffffffffffffffffffffffffffffffff166323b872dd3330600080878152602001908152602001600020600401546040518463ffffffff167c0100000000000000000000000000000000000000000000000000000000028152600401808473ffffffffffffffffffffffffffffffffffffffff1673ffffffffffffffffffffffffffffffffffffffff1681526020018373ffffffffffffffffffffffffffffffffffffffff1673ffffffffffffffffffffffffffffffffffffffff1681526020018281526020019350505050602060405180830381600087803b158015610afc57600080fd5b505af1158015610b10573d6000803e3d6000fd5b505050506040513d6020811015610b2657600080fd5b81019080805190602001909291905050501515610b4257600080fd5b610b4c823361128c565b9050919050565b6000610b6433888888888888610ee5565b90509695505050505050565b6000806000838152602001908152602001600020600801549050919050565b6000806000838152602001908152602001600020600201549050919050565b60006001905090565b60008273ffffffffffffffffffffffffffffffffffffffff163373ffffffffffffffffffffffffffffffffffffffff16141515610bf357600080fd5b8273ffffffffffffffffffffffffffffffffffffffff166323b872dd8630876040518463ffffffff167c0100000000000000000000000000000000000000000000000000000000028152600401808473ffffffffffffffffffffffffffffffffffffffff1673ffffffffffffffffffffffffffffffffffffffff1681526020018373ffffffffffffffffffffffffffffffffffffffff1673ffffffffffffffffffffffffffffffffffffffff1681526020018281526020019350505050602060405180830381600087803b158015610cca57600080fd5b505af1158015610cde573d6000803e3d6000fd5b505050506040513d6020811015610cf457600080fd5b81019080805190602001909291905050501515610d1057600080fd5b610d24610d1e836000611561565b8661128c565b1515610d2f57600080fd5b60019050949350505050565b6000806000838152602001908152602001600020600901549050919050565b600080600083815260200190815260200160002060030160009054906101000a900473ffffffffffffffffffffffffffffffffffffffff169050919050565b60606000808381526020019081526020016000206001018054600181600116156101000203166002900480601f016020809104026020016040519081016040528092919081815260200182805460018160011615610100020316600290048015610e445780601f10610e1957610100808354040283529160200191610e44565b820191906000526020600020905b815481529060010190602001808311610e2757829003601f168201915b50505050509050919050565b6000806000838152602001908152602001600020600401546000808481526020019081526020016000206008015410159050919050565b600080600083815260200190815260200160002060050160009054906101000a900473ffffffffffffffffffffffffffffffffffffffff169050919050565b6000806000838152602001908152602001600020600a01549050919050565b6000804390506000898989898989604051602001808773ffffffffffffffffffffffffffffffffffffffff1673ffffffffffffffffffffffffffffffffffffffff166c0100000000000000000000000002815260140186815260200185805190602001908083835b602083101515610f725780518252602082019150602081019050602083039250610f4d565b6001836020036101000a0380198251168184511680821785525050505050509050018473ffffffffffffffffffffffffffffffffffffffff1673ffffffffffffffffffffffffffffffffffffffff166c010000000000000000000000000281526014018381526020018273ffffffffffffffffffffffffffffffffffffffff1673ffffffffffffffffffffffffffffffffffffffff166c01000000000000000000000000028152601401965050505050505060405160208183030381529060405280519060200120905060006001026000808381526020019081526020016000206000015414151561106357600080fd5b610160604051908101604052808281526020018981526020018a81526020018873ffffffffffffffffffffffffffffffffffffffff1681526020018781526020018673ffffffffffffffffffffffffffffffffffffffff168152602001838152602001600073ffffffffffffffffffffffffffffffffffffffff16815260200160008152602001600081526020018581525060008083815260200190815260200160002060008201518160000155602082015181600101908051906020019061112d92919061163f565b506040820151816002015560608201518160030160006101000a81548173ffffffffffffffffffffffffffffffffffffffff021916908373ffffffffffffffffffffffffffffffffffffffff1602179055506080820151816004015560a08201518160050160006101000a81548173ffffffffffffffffffffffffffffffffffffffff021916908373ffffffffffffffffffffffffffffffffffffffff16021790555060c0820151816006015560e08201518160070160006101000a81548173ffffffffffffffffffffffffffffffffffffffff021916908373ffffffffffffffffffffffffffffffffffffffff1602179055506101008201518160080155610120820151816009015561014082015181600a01559050507fc7ef264b3f844cbb14c2236b9e9682cdb5827cb89858ad61f7d3e7df566ec4c7816040518082815260200191505060405180910390a18292505050979650505050505050565b600082600080858152602001908152602001600020600001541415156112b157600080fd5b600015156112be84610e50565b15151415156112cc57600080fd5b600015156112d98461098f565b15151415156112e757600080fd5b60008084815260200190815260200160002060030160009054906101000a900473ffffffffffffffffffffffffffffffffffffffff1673ffffffffffffffffffffffffffffffffffffffff1663a9059cbb60008086815260200190815260200160002060050160009054906101000a900473ffffffffffffffffffffffffffffffffffffffff16600080878152602001908152602001600020600401546040518363ffffffff167c0100000000000000000000000000000000000000000000000000000000028152600401808373ffffffffffffffffffffffffffffffffffffffff1673ffffffffffffffffffffffffffffffffffffffff16815260200182815260200192505050602060405180830381600087803b15801561140957600080fd5b505af115801561141d573d6000803e3d6000fd5b505050506040513d602081101561143357600080fd5b8101908080519060200190929190505050151561144f57600080fd5b60008084815260200190815260200160002060040154600080858152602001908152602001600020600801819055508160008085815260200190815260200160002060070160006101000a81548173ffffffffffffffffffffffffffffffffffffffff021916908373ffffffffffffffffffffffffffffffffffffffff16021790555043600080858152602001908152602001600020600901819055507f8c312afe1806eaa44098445e756760724a25f74268c8e3b29276b885713247d08383604051808381526020018273ffffffffffffffffffffffffffffffffffffffff1673ffffffffffffffffffffffffffffffffffffffff1681526020019250505060405180910390a16001905092915050565b60008060008090505b6020811015611634576008810260ff7f010000000000000000000000000000000000000000000000000000000000000002868387018151811015156115ab57fe5b9060200101517f010000000000000000000000000000000000000000000000000000000000000090047f010000000000000000000000000000000000000000000000000000000000000002167effffffffffffffffffffffffffffffffffffffffffffffffffffffffffffff1916908060020a820491505082179150808060010191505061156a565b508091505092915050565b828054600181600116156101000203166002900490600052602060002090601f016020900481019282601f1061168057805160ff19168380011785556116ae565b828001600101855582156116ae579182015b828111156116ad578251825591602001919060010190611692565b5b5090506116bb91906116bf565b5090565b6116e191905b808211156116dd5760008160009055506001016116c5565b5090565b9056fea165627a7a72305820112ea803915a9b3fa5c4bd2452fc9cb840e4fe7b4c5eb3b4ca2fdbfc0ad744100029",
  "source": "pragma solidity ^0.5.0;\n\n\n\n/**\n * @title SafeMath\n * @dev Math operations with safety checks that throw on error\n */\nlibrary SafeMath {\n\n  /**\n  * @dev Multiplies two numbers, throws on overflow.\n  */\n  function mul(uint256 a, uint256 b) internal pure returns (uint256) {\n    if (a == 0) {\n      return 0;\n    }\n    uint256 c = a * b;\n    assert(c / a == b);\n    return c;\n  }\n\n  /**\n  * @dev Integer division of two numbers, truncating the quotient.\n  */\n  function div(uint256 a, uint256 b) internal pure returns (uint256) {\n    // assert(b > 0); // Solidity automatically throws when dividing by 0\n    uint256 c = a / b;\n    // assert(a == b * c + a % b); // There is no case in which this doesn't hold\n    return c;\n  }\n\n  /**\n  * @dev Substracts two numbers, throws on overflow (i.e. if subtrahend is greater than minuend).\n  */\n  function sub(uint256 a, uint256 b) internal pure returns (uint256) {\n    assert(b <= a);\n    return a - b;\n  }\n\n  /**\n  * @dev Adds two numbers, throws on overflow.\n  */\n  function add(uint256 a, uint256 b) internal pure returns (uint256) {\n    uint256 c = a + b;\n    assert(c >= a);\n    return c;\n  }\n}\n\n\n\n/*\nPAYSPEC: Generic global invoicing contract\n\n\n*/\n\ncontract ERC20Interface {\n    function totalSupply() public view returns (uint);\n    function balanceOf(address tokenOwner) public view returns (uint balance);\n    function allowance(address tokenOwner, address spender) public view returns (uint remaining);\n    function transfer(address to, uint tokens) public returns (bool success);\n    function approve(address spender, uint tokens) public returns (bool success);\n    function transferFrom(address from, address to, uint tokens) public returns (bool success);\n\n    event Transfer(address indexed from, address indexed to, uint tokens);\n    event Approval(address indexed tokenOwner, address indexed spender, uint tokens);\n}\n\n\ncontract ApproveAndCallFallBack {\n    function receiveApproval(address from, uint256 tokens, address token, bytes memory data) public;\n}\n\n\n\n\n\n\ncontract PaySpec  {\n\n   using SafeMath for uint;\n\n\n   mapping(bytes32 => Invoice) invoices;\n\n\n\n  event CreatedInvoice(bytes32 uuid);\n  event PaidInvoice(bytes32 uuid, address from);\n\n\n  struct Invoice {\n    bytes32 uuid;\n    string description;\n    uint256 refNumber;\n\n\n    address token;\n    uint256 amountDue;\n    address payTo;\n    uint256 ethBlockCreatedAt;\n\n\n    address paidBy;\n    uint256 amountPaid;\n    uint256 ethBlockPaidAt;\n\n\n    uint256 ethBlockExpiresAt;\n\n  }\n\n\n\n  constructor(  ) public {\n\n\n  }\n\n\n  //do not allow ether to enter\n  function() external    payable {\n      revert();\n  }\n\n\n  function getContractVersion( ) public pure returns (uint)\n  {\n      return 1;\n  }\n\n\n  function createInvoice(uint256 refNumber, string memory description,  address token, uint256 amountDue, address payTo, uint256 ethBlockExpiresAt ) public returns (bytes32 uuid) {\n      return _createInvoiceInternal(msg.sender, refNumber,description,token,amountDue,payTo,ethBlockExpiresAt);\n  }\n\n  function createAndPayInvoice(uint256 refNumber, string memory description,  address token, uint256 amountDue, address payTo, uint256 ethBlockExpiresAt ) public returns (bool) {\n      bytes32 uuid =  _createInvoiceInternal(msg.sender, refNumber,description,token,amountDue,payTo,ethBlockExpiresAt) ;\n\n\n      require( payInvoice(uuid) );\n\n      return true;\n\n  }\n\n   function _createInvoiceInternal( address from, uint256 refNumber, string memory description,  address token, uint256 amountDue, address payTo, uint256 ethBlockExpiresAt ) private returns (bytes32 uuid) {\n\n      uint256 ethBlockCreatedAt = block.number;\n\n      bytes32 newuuid = keccak256( abi.encodePacked(from, refNumber, description,  token, amountDue, payTo ) );\n\n      require( invoices[newuuid].uuid == 0 );  //make sure you do not overwrite invoices\n\n      invoices[newuuid] = Invoice({\n       uuid: newuuid,\n       description: description,\n       refNumber: refNumber,\n       token: token,\n       amountDue: amountDue,\n       payTo: payTo,\n       ethBlockCreatedAt: ethBlockCreatedAt,\n       paidBy: address(0),\n       amountPaid: 0,\n       ethBlockPaidAt: 0,\n       ethBlockExpiresAt: ethBlockExpiresAt\n\n      });\n\n\n       emit CreatedInvoice(newuuid);\n\n       return uuid;\n   }\n\n   function payInvoice(bytes32 invoiceUUID) public returns (bool)\n   {\n     //transfer the tokens into escrow into this contract to stage for paying the invoice\n     require( ERC20Interface(  invoices[invoiceUUID].token ).transferFrom(msg.sender, address(this),  invoices[invoiceUUID].amountDue )   );\n\n     return _payInvoiceInternal( invoiceUUID, msg.sender);\n\n\n   }\n\n   function _payInvoiceInternal( bytes32 invoiceUUID, address from ) private returns (bool) {\n\n       require( invoices[invoiceUUID].uuid == invoiceUUID ); //make sure invoice exists\n       require( invoiceWasPaid(invoiceUUID) == false );\n       require( invoiceHasExpired(invoiceUUID) == false);\n\n       //Transfer the tokens. Always transfer from this contracts escrow (not wildcard) so tokens only approved to this universal contract cannot be spent by others.\n       require( ERC20Interface( invoices[invoiceUUID].token  ).transfer(  invoices[invoiceUUID].payTo, invoices[invoiceUUID].amountDue   ) );\n\n       invoices[invoiceUUID].amountPaid = invoices[invoiceUUID].amountDue;\n\n       invoices[invoiceUUID].paidBy = from;\n\n       invoices[invoiceUUID].ethBlockPaidAt = block.number;\n\n\n\n       emit PaidInvoice(invoiceUUID, from);\n\n       return true;\n\n\n   }\n\n   function getDescription( bytes32 invoiceUUID ) public view returns ( string  memory )\n   {\n       return invoices[invoiceUUID].description;\n   }\n\n   function getRefNumber( bytes32 invoiceUUID ) public view returns (uint)\n   {\n       return invoices[invoiceUUID].refNumber;\n   }\n\n   function getEthBlockExpiredAt( bytes32 invoiceUUID ) public view returns (uint)\n   {\n       return invoices[invoiceUUID].ethBlockExpiresAt;\n   }\n\n   function getTokenAddress( bytes32 invoiceUUID ) public view returns (address)\n   {\n       return invoices[invoiceUUID].token;\n   }\n\n   function getRecipientAddress( bytes32 invoiceUUID ) public view returns (address)\n   {\n       return invoices[invoiceUUID].payTo;\n   }\n\n   function invoiceExists ( bytes32 invoiceUUID ) public view returns (bool)\n   {\n     return invoices[invoiceUUID].uuid == invoiceUUID;\n   }\n\n\n   function getAmountDue( bytes32 invoiceUUID ) public view returns (uint)\n   {\n       return invoices[invoiceUUID].amountDue;\n   }\n\n   function getAmountPaid( bytes32 invoiceUUID ) public view returns (uint)\n   {\n       return invoices[invoiceUUID].amountPaid;\n   }\n\n   function getEthBlockPaidAt( bytes32 invoiceUUID ) public view returns (uint)\n   {\n       return invoices[invoiceUUID].ethBlockPaidAt;\n   }\n\n\n\n\n   function invoiceWasPaid( bytes32 invoiceUUID ) public view returns (bool)\n   {\n       return invoices[invoiceUUID].amountPaid >= invoices[invoiceUUID].amountDue;\n   }\n\n\n   function invoiceHasExpired( bytes32 invoiceUUID ) public view returns (bool)\n   {\n       return (getEthBlockExpiredAt(invoiceUUID) != 0 && block.number >= getEthBlockExpiredAt(invoiceUUID));\n   }\n\n\n\n   /*\n     Receive approval from ApproveAndCall() to pay invoice.  The first 32 bytes of the data array are used for the invoice UUID bytes32.\n\n   */\n     function receiveApproval(address from, uint256 tokens, address token, bytes memory data) public returns (bool) {\n\n        //can only be called by the token contract\n        require(msg.sender == token);\n\n        //transfer the tokens into escrow into this contract to stage for paying the invoice\n        require( ERC20Interface(token).transferFrom(from, address(this), tokens)   );\n\n        require(  _payInvoiceInternal(bytesToBytes32(data,0), from)  );\n\n        return true;\n\n     }\n\n    function bytesToBytes32(bytes memory b, uint offset) private pure returns (bytes32) {\n      bytes32 out;\n\n      for (uint i = 0; i < 32; i++) {\n        out |= bytes32(b[offset + i] & 0xFF) >> (i * 8);\n      }\n      return out;\n    }\n\n\n}\n",
  "sourcePath": "/home/andy/dev/senderc-contract/contracts/SendERC.sol",
  "compiler": {
    "name": "solc",
    "version": "0.5.0+commit.1d4f565a.Emscripten.clang"
  },
  "schemaVersion": "3.0.3",
  "updatedAt": "2020-01-11T21:02:01.669Z",
  "devdoc": {
    "methods": {}
  },
  "userdoc": {
    "methods": {}
  }
}